S00F0000436F6E74726F6C2E7372656334
S11300000C943C000C944E000C944E000C944E0046
S11300100C944E000C944E000C944E000C944E0024
S11300200C944E000C944E000C944E000C944E0014
S11300300C944E000C944E000C944E000C944E0004
S11300400C944E000C944E000C944E000C944E00F4
S11300500C944E000C944E000C944E000C944E00E4
S11300600C944E000C944E003C01410146014B019E
S1130070500155015A015F0111241FBECFEFD8E092
S1130080DEBFCDBF21E0A0E0B1E001C01D92A030F1
S1130090B207E1F70E947E000C94F2010C94000078
S11300A08130910561F461E083E00E94DE004FEF4E
S11300B05FE060E070E083E00E9420010895892BF6
S11300C059F460E083E00E94DE0040E050E060E02C
S11300D070E083E00E94200108950F931F93CF9353
S11300E0C82F8A010E94DE00A80160E070E08C2F16
S11300F00E942001CF911F910F9108950E94A401A5
S11301008DEF8AB982E08BB983E00E947F0160E0C1
S113011081E00E94DE0060E082E00E94DE004FEF9A
S11301205FE061E081E00E946D0089B1823029F4D2
S113013060E081E00E94DE0006C04FEF5FE061E016
S113014081E00E946D0081E090E00E9450008FE108
S11301509EE40197F1F700C0000080E090E00E9467
S113016050008FE19EE40197F1F700C00000DDCF5D
S1130170CF93DF93D82FC62F80EC0E94AA018D2F36
S11301800E94DA01C1110AC080E00E94DA0180E015
S11301900E94DA0180E10E94DA010BC0C13049F407
S11301A080E10E94DA0180E00E94DA0180E00E948E
S11301B0DA010E94D101DF91CF910895CF9382306B
S11301C061F018F4813031F011C0833049F084308B
S11301D051F00CC0CBE28FE20BC0C7E383E308C04D
S11301E0C3E187E105C0CFE18BE102C0C0E080E05C
S11301F0623029F0633099F06130C9F408C060E0DE
S11302000E94B80061E08C2F0E94B80017C061E022
S11302100E94B80060E08C2F0E94B8000FC061E01B
S11302200E94B80061E08C2F0E94B80007C060E013
S11302300E94B80060E08C2F0E94B800CF9108950E
S1130240FF920F931F93CF93DF938B01EA01611504
S1130250704110F000E010E0C11590E1D90710F0F2
S1130260C0E0D0E090E0FC013197E830F10560F5A2
S1130270EC5CFF4F0C94EC010F2EF6E2FF2EF02DF8
S113028024C00F2EFAE3FF2EF02D1FC00F2EFEE028
S1130290FF2EF02D1AC00F2EF2E2FF2EF02D15C006
S11302A00F2EF6E0FF2EF02D10C00F2EFAE0FF2ED9
S11302B0F02D0BC00F2EFEE3FF2EF02D06C00F2EE7
S11302C0F2E4FF2EF02D01C0F12C80EC0E94AA0173
S11302D08F2D0E94DA01802F0E94DA01812F0E9463
S11302E0DA018C2F0E94DA018D2F0E94DA010E941C
S11302F0D101DF91CF911F910F91FF900895CF937A
S1130300C82F80EC0E94AA0180E00E94DA0180E3F9
S11303100E94DA010E94D10180EC0E94AA018EEFB2
S11303200E94DA018C2F0E94DA010E94D10180EC34
S11303300E94AA0180E00E94DA0180E20E94DA01B0
S11303400E94D101CF9108951092B9008CE080935E
S1130350B800089594EA9093BC00ECEBF0E090812F
S11303609923ECF79091B900987F983011F090316F
S1130370A1F48093BB0084E88093BC00ECEBF0E034
S113038080818823ECF79091B900987F983139F0F7
S113039081E0903429F480E0089581E0089580E0BC
S11303A0089584E98093BC00ECEBF0E0808184FD47
S11303B0FDCF08958093BB0084E88093BC00ECEBF0
S11303C0F0E080818823ECF79091B900987F81E078
S11303D0983209F480E00895EE0FFF1F0590F49120
S10B03E0E02D0994F894FFCF0D
S9030000FC
